{
  "contractName": "SolnSquareVerifier",
  "abi": [
    {
      "inputs": [
        {
          "internalType": "address",
          "name": "verifierContractAddress",
          "type": "address"
        }
      ],
      "stateMutability": "nonpayable",
      "type": "constructor"
    },
    {
      "anonymous": false,
      "inputs": [
        {
          "indexed": true,
          "internalType": "address",
          "name": "owner",
          "type": "address"
        },
        {
          "indexed": true,
          "internalType": "address",
          "name": "approved",
          "type": "address"
        },
        {
          "indexed": true,
          "internalType": "uint256",
          "name": "tokenId",
          "type": "uint256"
        }
      ],
      "name": "Approval",
      "type": "event"
    },
    {
      "anonymous": false,
      "inputs": [
        {
          "indexed": true,
          "internalType": "address",
          "name": "owner",
          "type": "address"
        },
        {
          "indexed": true,
          "internalType": "address",
          "name": "operator",
          "type": "address"
        },
        {
          "indexed": false,
          "internalType": "bool",
          "name": "approved",
          "type": "bool"
        }
      ],
      "name": "ApprovalForAll",
      "type": "event"
    },
    {
      "anonymous": false,
      "inputs": [
        {
          "indexed": false,
          "internalType": "address",
          "name": "solver",
          "type": "address"
        },
        {
          "indexed": false,
          "internalType": "bool",
          "name": "isCorrect",
          "type": "bool"
        }
      ],
      "name": "NewSolution",
      "type": "event"
    },
    {
      "anonymous": false,
      "inputs": [
        {
          "indexed": false,
          "internalType": "address",
          "name": "who",
          "type": "address"
        }
      ],
      "name": "Paused",
      "type": "event"
    },
    {
      "anonymous": false,
      "inputs": [
        {
          "indexed": true,
          "internalType": "address",
          "name": "from",
          "type": "address"
        },
        {
          "indexed": true,
          "internalType": "address",
          "name": "to",
          "type": "address"
        },
        {
          "indexed": true,
          "internalType": "uint256",
          "name": "tokenId",
          "type": "uint256"
        }
      ],
      "name": "Transfer",
      "type": "event"
    },
    {
      "anonymous": false,
      "inputs": [
        {
          "indexed": false,
          "internalType": "address",
          "name": "previousOwner",
          "type": "address"
        },
        {
          "indexed": false,
          "internalType": "address",
          "name": "newOwner",
          "type": "address"
        }
      ],
      "name": "TransferOwnership",
      "type": "event"
    },
    {
      "anonymous": false,
      "inputs": [
        {
          "indexed": false,
          "internalType": "address",
          "name": "who",
          "type": "address"
        }
      ],
      "name": "Unpaused",
      "type": "event"
    },
    {
      "inputs": [
        {
          "internalType": "bytes32",
          "name": "_myid",
          "type": "bytes32"
        },
        {
          "internalType": "string",
          "name": "_result",
          "type": "string"
        }
      ],
      "name": "__callback",
      "outputs": [],
      "stateMutability": "nonpayable",
      "type": "function"
    },
    {
      "inputs": [
        {
          "internalType": "bytes32",
          "name": "_myid",
          "type": "bytes32"
        },
        {
          "internalType": "string",
          "name": "_result",
          "type": "string"
        },
        {
          "internalType": "bytes",
          "name": "_proof",
          "type": "bytes"
        }
      ],
      "name": "__callback",
      "outputs": [],
      "stateMutability": "nonpayable",
      "type": "function"
    },
    {
      "inputs": [
        {
          "internalType": "address",
          "name": "to",
          "type": "address"
        },
        {
          "internalType": "uint256",
          "name": "tokenId",
          "type": "uint256"
        }
      ],
      "name": "approve",
      "outputs": [],
      "stateMutability": "nonpayable",
      "type": "function"
    },
    {
      "inputs": [
        {
          "internalType": "address",
          "name": "owner",
          "type": "address"
        }
      ],
      "name": "balanceOf",
      "outputs": [
        {
          "internalType": "uint256",
          "name": "",
          "type": "uint256"
        }
      ],
      "stateMutability": "view",
      "type": "function",
      "constant": true
    },
    {
      "inputs": [],
      "name": "baseTokenURI",
      "outputs": [
        {
          "internalType": "string",
          "name": "",
          "type": "string"
        }
      ],
      "stateMutability": "view",
      "type": "function",
      "constant": true
    },
    {
      "inputs": [
        {
          "internalType": "uint256",
          "name": "tokenId",
          "type": "uint256"
        }
      ],
      "name": "getApproved",
      "outputs": [
        {
          "internalType": "address",
          "name": "",
          "type": "address"
        }
      ],
      "stateMutability": "view",
      "type": "function",
      "constant": true
    },
    {
      "inputs": [
        {
          "internalType": "address",
          "name": "owner",
          "type": "address"
        },
        {
          "internalType": "address",
          "name": "operator",
          "type": "address"
        }
      ],
      "name": "isApprovedForAll",
      "outputs": [
        {
          "internalType": "bool",
          "name": "",
          "type": "bool"
        }
      ],
      "stateMutability": "view",
      "type": "function",
      "constant": true
    },
    {
      "inputs": [],
      "name": "isPaused",
      "outputs": [
        {
          "internalType": "bool",
          "name": "",
          "type": "bool"
        }
      ],
      "stateMutability": "view",
      "type": "function",
      "constant": true
    },
    {
      "inputs": [
        {
          "internalType": "address",
          "name": "to",
          "type": "address"
        },
        {
          "internalType": "uint256",
          "name": "tokenId",
          "type": "uint256"
        }
      ],
      "name": "mint",
      "outputs": [
        {
          "internalType": "bool",
          "name": "",
          "type": "bool"
        }
      ],
      "stateMutability": "nonpayable",
      "type": "function"
    },
    {
      "inputs": [],
      "name": "name",
      "outputs": [
        {
          "internalType": "string",
          "name": "",
          "type": "string"
        }
      ],
      "stateMutability": "view",
      "type": "function",
      "constant": true
    },
    {
      "inputs": [],
      "name": "owner",
      "outputs": [
        {
          "internalType": "address",
          "name": "",
          "type": "address"
        }
      ],
      "stateMutability": "view",
      "type": "function",
      "constant": true
    },
    {
      "inputs": [
        {
          "internalType": "uint256",
          "name": "tokenId",
          "type": "uint256"
        }
      ],
      "name": "ownerOf",
      "outputs": [
        {
          "internalType": "address",
          "name": "",
          "type": "address"
        }
      ],
      "stateMutability": "view",
      "type": "function",
      "constant": true
    },
    {
      "inputs": [
        {
          "internalType": "address",
          "name": "from",
          "type": "address"
        },
        {
          "internalType": "address",
          "name": "to",
          "type": "address"
        },
        {
          "internalType": "uint256",
          "name": "tokenId",
          "type": "uint256"
        }
      ],
      "name": "safeTransferFrom",
      "outputs": [],
      "stateMutability": "nonpayable",
      "type": "function"
    },
    {
      "inputs": [
        {
          "internalType": "address",
          "name": "from",
          "type": "address"
        },
        {
          "internalType": "address",
          "name": "to",
          "type": "address"
        },
        {
          "internalType": "uint256",
          "name": "tokenId",
          "type": "uint256"
        },
        {
          "internalType": "bytes",
          "name": "_data",
          "type": "bytes"
        }
      ],
      "name": "safeTransferFrom",
      "outputs": [],
      "stateMutability": "nonpayable",
      "type": "function"
    },
    {
      "inputs": [
        {
          "internalType": "address",
          "name": "to",
          "type": "address"
        },
        {
          "internalType": "bool",
          "name": "approved",
          "type": "bool"
        }
      ],
      "name": "setApprovalForAll",
      "outputs": [],
      "stateMutability": "nonpayable",
      "type": "function"
    },
    {
      "inputs": [
        {
          "internalType": "bool",
          "name": "_pausedState",
          "type": "bool"
        }
      ],
      "name": "setPausedState",
      "outputs": [],
      "stateMutability": "nonpayable",
      "type": "function"
    },
    {
      "inputs": [
        {
          "internalType": "bytes4",
          "name": "interfaceId",
          "type": "bytes4"
        }
      ],
      "name": "supportsInterface",
      "outputs": [
        {
          "internalType": "bool",
          "name": "",
          "type": "bool"
        }
      ],
      "stateMutability": "view",
      "type": "function",
      "constant": true
    },
    {
      "inputs": [],
      "name": "symbol",
      "outputs": [
        {
          "internalType": "string",
          "name": "",
          "type": "string"
        }
      ],
      "stateMutability": "view",
      "type": "function",
      "constant": true
    },
    {
      "inputs": [
        {
          "internalType": "uint256",
          "name": "index",
          "type": "uint256"
        }
      ],
      "name": "tokenByIndex",
      "outputs": [
        {
          "internalType": "uint256",
          "name": "",
          "type": "uint256"
        }
      ],
      "stateMutability": "view",
      "type": "function",
      "constant": true
    },
    {
      "inputs": [
        {
          "internalType": "address",
          "name": "owner",
          "type": "address"
        },
        {
          "internalType": "uint256",
          "name": "index",
          "type": "uint256"
        }
      ],
      "name": "tokenOfOwnerByIndex",
      "outputs": [
        {
          "internalType": "uint256",
          "name": "",
          "type": "uint256"
        }
      ],
      "stateMutability": "view",
      "type": "function",
      "constant": true
    },
    {
      "inputs": [
        {
          "internalType": "uint256",
          "name": "tokenId",
          "type": "uint256"
        }
      ],
      "name": "tokenURI",
      "outputs": [
        {
          "internalType": "string",
          "name": "",
          "type": "string"
        }
      ],
      "stateMutability": "view",
      "type": "function",
      "constant": true
    },
    {
      "inputs": [],
      "name": "totalSupply",
      "outputs": [
        {
          "internalType": "uint256",
          "name": "",
          "type": "uint256"
        }
      ],
      "stateMutability": "view",
      "type": "function",
      "constant": true
    },
    {
      "inputs": [
        {
          "internalType": "address",
          "name": "from",
          "type": "address"
        },
        {
          "internalType": "address",
          "name": "to",
          "type": "address"
        },
        {
          "internalType": "uint256",
          "name": "tokenId",
          "type": "uint256"
        }
      ],
      "name": "transferFrom",
      "outputs": [],
      "stateMutability": "nonpayable",
      "type": "function"
    },
    {
      "inputs": [
        {
          "internalType": "address",
          "name": "newOwner",
          "type": "address"
        }
      ],
      "name": "transferOwnership",
      "outputs": [],
      "stateMutability": "nonpayable",
      "type": "function"
    },
    {
      "inputs": [
        {
          "internalType": "uint256[2]",
          "name": "a",
          "type": "uint256[2]"
        },
        {
          "internalType": "uint256[2][2]",
          "name": "b",
          "type": "uint256[2][2]"
        },
        {
          "internalType": "uint256[2]",
          "name": "c",
          "type": "uint256[2]"
        },
        {
          "internalType": "uint256[2]",
          "name": "input",
          "type": "uint256[2]"
        }
      ],
      "name": "mintDRET",
      "outputs": [],
      "stateMutability": "nonpayable",
      "type": "function"
    }
  ],
  "bytecode": "0x60806040523480156200001157600080fd5b50604051620039d9380380620039d9833981810160405260208110156200003757600080fd5b81019080805190602001909291905050506040518060400160405280601a81526020017f446f6e726964646f205265616c2045737461746520546f6b656e0000000000008152506040518060400160405280600481526020017f44524554000000000000000000000000000000000000000000000000000000008152506040518060600160405280603f81526020016200399a603f9139336000806101000a81548173ffffffffffffffffffffffffffffffffffffffff021916908373ffffffffffffffffffffffffffffffffffffffff1602179055507f5c486528ec3e3f0ea91181cff8116f02bfa350e03b8b6f12e00765adbb5af85c60008060009054906101000a900473ffffffffffffffffffffffffffffffffffffffff16604051808373ffffffffffffffffffffffffffffffffffffffff1681526020018273ffffffffffffffffffffffffffffffffffffffff1681526020019250505060405180910390a160008060146101000a81548160ff021916908315150217905550620001cd6301ffc9a760e01b620002ab60201b60201c565b620001e56380ac58cd60e01b620002ab60201b60201c565b620001fd63780e9d6360e01b620002ab60201b60201c565b82600f9080519060200190620002159291906200034b565b5081601090805190602001906200022e9291906200034b565b508060119080519060200190620002479291906200034b565b5062000260635b5e139f60e01b620002ab60201b60201c565b50505080601360006101000a81548173ffffffffffffffffffffffffffffffffffffffff021916908373ffffffffffffffffffffffffffffffffffffffff16021790555050620003f1565b63ffffffff60e01b817bffffffffffffffffffffffffffffffffffffffffffffffffffffffff19161415620002df57600080fd5b6001806000837bffffffffffffffffffffffffffffffffffffffffffffffffffffffff19167bffffffffffffffffffffffffffffffffffffffffffffffffffffffff1916815260200190815260200160002060006101000a81548160ff02191690831515021790555050565b828054600181600116156101000203166002900490600052602060002090601f016020900481019282601f106200038e57805160ff1916838001178555620003bf565b82800160010185558215620003bf579182015b82811115620003be578251825591602001919060010190620003a1565b5b509050620003ce9190620003d2565b5090565b5b80821115620003ed576000816000905550600101620003d3565b5090565b61359980620004016000396000f3fe608060405234801561001057600080fd5b50600436106101735760003560e01c80634f6ccce7116100de578063b187bd2611610097578063d547cfb711610071578063d547cfb714610c0b578063db9f60ff14610c8e578063e985e9c514610cbe578063f2fde38b14610d3857610173565b8063b187bd2614610a3f578063b88d4fde14610a5f578063c87b56dd14610b6457610173565b80634f6ccce7146108465780636352211e1461088857806370a08231146108e05780638da5cb5b1461093857806395d89b411461096c578063a22cb465146109ef57610173565b806323b872dd1161013057806323b872dd1461048357806327dc297e146104f15780632f745c59146105b657806338bbfa501461061857806340c10f191461077457806342842e0e146107d857610173565b806301ffc9a71461017857806306fdde03146101db578063081812fc1461025e578063095ea7b3146102b657806318160ddd146103045780631fbc409214610322575b600080fd5b6101c36004803603602081101561018e57600080fd5b8101908080357bffffffffffffffffffffffffffffffffffffffffffffffffffffffff19169060200190929190505050610d7c565b60405180821515815260200191505060405180910390f35b6101e3610de4565b6040518080602001828103825283818151815260200191508051906020019080838360005b83811015610223578082015181840152602081019050610208565b50505050905090810190601f1680156102505780820380516001836020036101000a031916815260200191505b509250505060405180910390f35b61028a6004803603602081101561027457600080fd5b8101908080359060200190929190505050610e86565b604051808273ffffffffffffffffffffffffffffffffffffffff16815260200191505060405180910390f35b610302600480360360408110156102cc57600080fd5b81019080803573ffffffffffffffffffffffffffffffffffffffff16906020019092919080359060200190929190505050610ec3565b005b61030c61112e565b6040518082815260200191505060405180910390f35b610481600480360361014081101561033957600080fd5b8101908080604001906002806020026040519081016040528092919082600260200280828437600081840152601f19601f82011690508083019250505050505091929192908060800190600280602002604051908101604052809291906000905b828210156103ee578382604002016002806020026040519081016040528092919082600260200280828437600081840152601f19601f8201169050808301925050505050508152602001906001019061039a565b50505050919291929080604001906002806020026040519081016040528092919082600260200280828437600081840152601f19601f820116905080830192505050505050919291929080604001906002806020026040519081016040528092919082600260200280828437600081840152601f19601f820116905080830192505050505050919291929050505061113b565b005b6104ef6004803603606081101561049957600080fd5b81019080803573ffffffffffffffffffffffffffffffffffffffff169060200190929190803573ffffffffffffffffffffffffffffffffffffffff169060200190929190803590602001909291905050506111e3565b005b6105b46004803603604081101561050757600080fd5b81019080803590602001909291908035906020019064010000000081111561052e57600080fd5b82018360208201111561054057600080fd5b8035906020019184600183028401116401000000008311171561056257600080fd5b91908080601f016020809104026020016040519081016040528093929190818152602001838380828437600081840152601f19601f820116905080830192505050505050509192919290505050611206565b005b610602600480360360408110156105cc57600080fd5b81019080803573ffffffffffffffffffffffffffffffffffffffff16906020019092919080359060200190929190505050611260565b6040518082815260200191505060405180910390f35b6107726004803603606081101561062e57600080fd5b81019080803590602001909291908035906020019064010000000081111561065557600080fd5b82018360208201111561066757600080fd5b8035906020019184600183028401116401000000008311171561068957600080fd5b91908080601f016020809104026020016040519081016040528093929190818152602001838380828437600081840152601f19601f820116905080830192505050505050509192919290803590602001906401000000008111156106ec57600080fd5b8201836020820111156106fe57600080fd5b8035906020019184600183028401116401000000008311171561072057600080fd5b91908080601f016020809104026020016040519081016040528093929190818152602001838380828437600081840152601f19601f8201169050808301925050505050505091929192905050506112d3565b005b6107c06004803603604081101561078a57600080fd5b81019080803573ffffffffffffffffffffffffffffffffffffffff169060200190929190803590602001909291905050506112f6565b60405180821515815260200191505060405180910390f35b610844600480360360608110156107ee57600080fd5b81019080803573ffffffffffffffffffffffffffffffffffffffff169060200190929190803573ffffffffffffffffffffffffffffffffffffffff169060200190929190803590602001909291905050506113ba565b005b6108726004803603602081101561085c57600080fd5b81019080803590602001909291905050506113da565b6040518082815260200191505060405180910390f35b6108b46004803603602081101561089e57600080fd5b810190808035906020019092919050505061140e565b604051808273ffffffffffffffffffffffffffffffffffffffff16815260200191505060405180910390f35b610922600480360360208110156108f657600080fd5b81019080803573ffffffffffffffffffffffffffffffffffffffff16906020019092919050505061144b565b6040518082815260200191505060405180910390f35b61094061149b565b604051808273ffffffffffffffffffffffffffffffffffffffff16815260200191505060405180910390f35b6109746114c4565b6040518080602001828103825283818151815260200191508051906020019080838360005b838110156109b4578082015181840152602081019050610999565b50505050905090810190601f1680156109e15780820380516001836020036101000a031916815260200191505b509250505060405180910390f35b610a3d60048036036040811015610a0557600080fd5b81019080803573ffffffffffffffffffffffffffffffffffffffff169060200190929190803515159060200190929190505050611566565b005b610a4761169e565b60405180821515815260200191505060405180910390f35b610b6260048036036080811015610a7557600080fd5b81019080803573ffffffffffffffffffffffffffffffffffffffff169060200190929190803573ffffffffffffffffffffffffffffffffffffffff1690602001909291908035906020019092919080359060200190640100000000811115610adc57600080fd5b820183602082011115610aee57600080fd5b80359060200191846001830284011164010000000083111715610b1057600080fd5b91908080601f016020809104026020016040519081016040528093929190818152602001838380828437600081840152601f19601f8201169050808301925050505050505091929192905050506116b4565b005b610b9060048036036020811015610b7a57600080fd5b81019080803590602001909291905050506116da565b6040518080602001828103825283818151815260200191508051906020019080838360005b83811015610bd0578082015181840152602081019050610bb5565b50505050905090810190601f168015610bfd5780820380516001836020036101000a031916815260200191505b509250505060405180910390f35b610c136117a1565b6040518080602001828103825283818151815260200191508051906020019080838360005b83811015610c53578082015181840152602081019050610c38565b50505050905090810190601f168015610c805780820380516001836020036101000a031916815260200191505b509250505060405180910390f35b610cbc60048036036020811015610ca457600080fd5b81019080803515159060200190929190505050611843565b005b610d2060048036036040811015610cd457600080fd5b81019080803573ffffffffffffffffffffffffffffffffffffffff169060200190929190803573ffffffffffffffffffffffffffffffffffffffff169060200190929190505050611a25565b60405180821515815260200191505060405180910390f35b610d7a60048036036020811015610d4e57600080fd5b81019080803573ffffffffffffffffffffffffffffffffffffffff169060200190929190505050611ab9565b005b600060016000837bffffffffffffffffffffffffffffffffffffffffffffffffffffffff19167bffffffffffffffffffffffffffffffffffffffffffffffffffffffff1916815260200190815260200160002060009054906101000a900460ff169050919050565b6060600f8054600181600116156101000203166002900480601f016020809104026020016040519081016040528092919081815260200182805460018160011615610100020316600290048015610e7c5780601f10610e5157610100808354040283529160200191610e7c565b820191906000526020600020905b815481529060010190602001808311610e5f57829003601f168201915b5050505050905090565b60006003600083815260200190815260200160002060009054906101000a900473ffffffffffffffffffffffffffffffffffffffff169050919050565b8173ffffffffffffffffffffffffffffffffffffffff166002600083815260200190815260200160002060009054906101000a900473ffffffffffffffffffffffffffffffffffffffff1673ffffffffffffffffffffffffffffffffffffffff161415610f7b576040517f08c379a00000000000000000000000000000000000000000000000000000000081526004018080602001828103825260218152602001806134866021913960400191505060405180910390fd5b3373ffffffffffffffffffffffffffffffffffffffff16610f9a61149b565b73ffffffffffffffffffffffffffffffffffffffff161480610ff55750610ff46002600083815260200190815260200160002060009054906101000a900473ffffffffffffffffffffffffffffffffffffffff1683611a25565b5b61104a576040517f08c379a00000000000000000000000000000000000000000000000000000000081526004018080602001828103825260258152602001806134016025913960400191505060405180910390fd5b816003600083815260200190815260200160002060006101000a81548173ffffffffffffffffffffffffffffffffffffffff021916908373ffffffffffffffffffffffffffffffffffffffff160217905550808273ffffffffffffffffffffffffffffffffffffffff166002600084815260200190815260200160002060009054906101000a900473ffffffffffffffffffffffffffffffffffffffff1673ffffffffffffffffffffffffffffffffffffffff167f8c5be1e5ebec7d5bd14f71427d1e84f3dd0314c0f7b2291e5b200ac8c7c3b92560405160405180910390a45050565b6000600880549050905090565b600061114985858585611ca0565b9050806111be576040517f08c379a00000000000000000000000000000000000000000000000000000000081526004018080602001828103825260208152602001807f536f6c7574696f6e2070726f7669646564206973206e6f7420636f727265637481525060200191505060405180910390fd5b6111c860156121a9565b6111db336111d660156121bf565b6112f6565b505050505050565b6111ed33826121cd565b6111f657600080fd5b611201838383612262565b505050565b61125c8282600067ffffffffffffffff8111801561122357600080fd5b506040519080825280601f01601f1916602001820160405280156112565781602001600182028036833780820191505090505b506112d3565b5050565b600061126b8361144b565b821061127657600080fd5b600660008473ffffffffffffffffffffffffffffffffffffffff1673ffffffffffffffffffffffffffffffffffffffff16815260200190815260200160002082815481106112c057fe5b9060005260206000200154905092915050565b6000801b600d60008060001b815260200190815260200160002081905550505050565b60008060009054906101000a900473ffffffffffffffffffffffffffffffffffffffff1673ffffffffffffffffffffffffffffffffffffffff163373ffffffffffffffffffffffffffffffffffffffff161461139d576040517f08c379a00000000000000000000000000000000000000000000000000000000081526004018080602001828103825260318152602001806135336031913960400191505060405180910390fd5b6113a78383612286565b6113b0826122a7565b6001905092915050565b6113d5838383604051806020016040528060008152506116b4565b505050565b60006113e461112e565b82106113ef57600080fd5b600882815481106113fc57fe5b90600052602060002001549050919050565b60006002600083815260200190815260200160002060009054906101000a900473ffffffffffffffffffffffffffffffffffffffff169050919050565b6000611494600460008473ffffffffffffffffffffffffffffffffffffffff1673ffffffffffffffffffffffffffffffffffffffff1681526020019081526020016000206121bf565b9050919050565b60008060009054906101000a900473ffffffffffffffffffffffffffffffffffffffff16905090565b606060108054600181600116156101000203166002900480601f01602080910402602001604051908101604052809291908181526020018280546001816001161561010002031660029004801561155c5780601f106115315761010080835404028352916020019161155c565b820191906000526020600020905b81548152906001019060200180831161153f57829003601f168201915b5050505050905090565b3373ffffffffffffffffffffffffffffffffffffffff168273ffffffffffffffffffffffffffffffffffffffff16141561159f57600080fd5b80600560003373ffffffffffffffffffffffffffffffffffffffff1673ffffffffffffffffffffffffffffffffffffffff16815260200190815260200160002060008473ffffffffffffffffffffffffffffffffffffffff1673ffffffffffffffffffffffffffffffffffffffff16815260200190815260200160002060006101000a81548160ff0219169083151502179055508173ffffffffffffffffffffffffffffffffffffffff163373ffffffffffffffffffffffffffffffffffffffff167f17307eab39ab6107e8899845ad3d59bd9653f200f220920489ca2b5937696c318360405180821515815260200191505060405180910390a35050565b60008060149054906101000a900460ff16905090565b6116bf8484846111e3565b6116cb848484846123f8565b6116d457600080fd5b50505050565b60606116e5826125b5565b6116ee57600080fd5b601260008381526020019081526020016000208054600181600116156101000203166002900480601f0160208091040260200160405190810160405280929190818152602001828054600181600116156101000203166002900480156117955780601f1061176a57610100808354040283529160200191611795565b820191906000526020600020905b81548152906001019060200180831161177857829003601f168201915b50505050509050919050565b606060118054600181600116156101000203166002900480601f0160208091040260200160405190810160405280929190818152602001828054600181600116156101000203166002900480156118395780601f1061180e57610100808354040283529160200191611839565b820191906000526020600020905b81548152906001019060200180831161181c57829003601f168201915b5050505050905090565b60008054906101000a900473ffffffffffffffffffffffffffffffffffffffff1673ffffffffffffffffffffffffffffffffffffffff163373ffffffffffffffffffffffffffffffffffffffff16146118e7576040517f08c379a00000000000000000000000000000000000000000000000000000000081526004018080602001828103825260318152602001806135336031913960400191505060405180910390fd5b801515600060149054906101000a900460ff1615151415611953576040517f08c379a00000000000000000000000000000000000000000000000000000000081526004018080602001828103825260308152602001806134566030913960400191505060405180910390fd5b80600060146101000a81548160ff021916908315150217905550600060149054906101000a900460ff16156119d4577f62e78cea01bee320cd4e420270b5ea74000d11b0c9f74754ebdbfc544b05a25833604051808273ffffffffffffffffffffffffffffffffffffffff16815260200191505060405180910390a1611a22565b7f5db9ee0a495bf2e6ff9c91a7834c1ba4fdd244a5e8aa4e537bd38aeae4b073aa33604051808273ffffffffffffffffffffffffffffffffffffffff16815260200191505060405180910390a15b50565b6000600560008473ffffffffffffffffffffffffffffffffffffffff1673ffffffffffffffffffffffffffffffffffffffff16815260200190815260200160002060008373ffffffffffffffffffffffffffffffffffffffff1673ffffffffffffffffffffffffffffffffffffffff16815260200190815260200160002060009054906101000a900460ff16905092915050565b60008054906101000a900473ffffffffffffffffffffffffffffffffffffffff1673ffffffffffffffffffffffffffffffffffffffff163373ffffffffffffffffffffffffffffffffffffffff1614611b5d576040517f08c379a00000000000000000000000000000000000000000000000000000000081526004018080602001828103825260318152602001806135336031913960400191505060405180910390fd5b611b7c8173ffffffffffffffffffffffffffffffffffffffff16612627565b15611bd2576040517f08c379a00000000000000000000000000000000000000000000000000000000081526004018080602001828103825260218152602001806134cd6021913960400191505060405180910390fd5b806000806101000a81548173ffffffffffffffffffffffffffffffffffffffff021916908373ffffffffffffffffffffffffffffffffffffffff1602179055507f5c486528ec3e3f0ea91181cff8116f02bfa350e03b8b6f12e00765adbb5af85c3360008054906101000a900473ffffffffffffffffffffffffffffffffffffffff16604051808373ffffffffffffffffffffffffffffffffffffffff1681526020018273ffffffffffffffffffffffffffffffffffffffff1681526020019250505060405180910390a150565b600080858585856040516020018085600260200280838360005b83811015611cd5578082015181840152602081019050611cba565b505050509050018460026000925b81841015611d295782846020020151600260200280838360005b83811015611d18578082015181840152602081019050611cfd565b505050509050019260010192611ce3565b9250505083600260200280838360005b83811015611d54578082015181840152602081019050611d39565b5050505090500182600260200280838360005b83811015611d82578082015181840152602081019050611d67565b505050509050019450505050506040516020818303038152906040528051906020012090506017600082815260200190815260200160002060010160149054906101000a900460ff1615611e21576040517f08c379a00000000000000000000000000000000000000000000000000000000081526004018080602001828103825260268152602001806134a76026913960400191505060405180910390fd5b611e2961332a565b611e3360146121a9565b611e3d60146121bf565b81600001818152505033816020019073ffffffffffffffffffffffffffffffffffffffff16908173ffffffffffffffffffffffffffffffffffffffff1681525050601360009054906101000a900473ffffffffffffffffffffffffffffffffffffffff1673ffffffffffffffffffffffffffffffffffffffff1663621e9ec0888888886040518563ffffffff1660e01b81526004018085600260200280838360005b83811015611efa578082015181840152602081019050611edf565b505050509050018460026000925b81841015611f4e5782846020020151600260200280838360005b83811015611f3d578082015181840152602081019050611f22565b505050509050019260010192611f08565b9250505083600260200280838360005b83811015611f79578082015181840152602081019050611f5e565b5050505090500182600260200280838360005b83811015611fa7578082015181840152602081019050611f8c565b5050505090500194505050505060206040518083038186803b158015611fcc57600080fd5b505afa158015611fe0573d6000803e3d6000fd5b505050506040513d6020811015611ff657600080fd5b810190808051906020019092919050505081604001901515908115158152505080601760008481526020019081526020016000206000820151816000015560208201518160010160006101000a81548173ffffffffffffffffffffffffffffffffffffffff021916908373ffffffffffffffffffffffffffffffffffffffff16021790555060408201518160010160146101000a81548160ff02191690831515021790555090505060168190806001815401808255809150506001900390600052602060002090600202016000909190919091506000820151816000015560208201518160010160006101000a81548173ffffffffffffffffffffffffffffffffffffffff021916908373ffffffffffffffffffffffffffffffffffffffff16021790555060408201518160010160146101000a81548160ff02191690831515021790555050507faa3b96938a80033dfee501c345b6097b88b8c480f2b8e4eb805f5440675fc11b338260400151604051808373ffffffffffffffffffffffffffffffffffffffff16815260200182151581526020019250505060405180910390a1806040015192505050949350505050565b6001816000016000828254019250508190555050565b600081600001549050919050565b6000806121d98361140e565b90508073ffffffffffffffffffffffffffffffffffffffff168473ffffffffffffffffffffffffffffffffffffffff16148061224857508373ffffffffffffffffffffffffffffffffffffffff1661223084610e86565b73ffffffffffffffffffffffffffffffffffffffff16145b8061225957506122588185611a25565b5b91505092915050565b61226d83838361263a565b61227783826128af565b6122818282612a58565b505050565b6122908282612b1c565b61229a8282612a58565b6122a381612c9c565b5050565b6122b0816125b5565b612322576040517f08c379a00000000000000000000000000000000000000000000000000000000081526004018080602001828103825260148152602001807f546f6b656e20646f6573206e6f7420657869737400000000000000000000000081525060200191505060405180910390fd5b6123ce60118054600181600116156101000203166002900480601f0160208091040260200160405190810160405280929190818152602001828054600181600116156101000203166002900480156123bb5780601f10612390576101008083540402835291602001916123bb565b820191906000526020600020905b81548152906001019060200180831161239e57829003601f168201915b50505050506123c983612ce5565b612e29565b6012600083815260200190815260200160002090805190602001906123f4929190613363565b5050565b60006124198473ffffffffffffffffffffffffffffffffffffffff16612627565b61242657600190506125ad565b60008473ffffffffffffffffffffffffffffffffffffffff1663150b7a02338887876040518563ffffffff1660e01b8152600401808573ffffffffffffffffffffffffffffffffffffffff1681526020018473ffffffffffffffffffffffffffffffffffffffff16815260200183815260200180602001828103825283818151815260200191508051906020019080838360005b838110156124d55780820151818401526020810190506124ba565b50505050905090810190601f1680156125025780820380516001836020036101000a031916815260200191505b5095505050505050602060405180830381600087803b15801561252457600080fd5b505af1158015612538573d6000803e3d6000fd5b505050506040513d602081101561254e57600080fd5b8101908080519060200190929190505050905063150b7a0260e01b7bffffffffffffffffffffffffffffffffffffffffffffffffffffffff1916817bffffffffffffffffffffffffffffffffffffffffffffffffffffffff1916149150505b949350505050565b6000806002600084815260200190815260200160002060009054906101000a900473ffffffffffffffffffffffffffffffffffffffff169050600073ffffffffffffffffffffffffffffffffffffffff168173ffffffffffffffffffffffffffffffffffffffff161415915050919050565b600080823b905060008111915050919050565b6002600082815260200190815260200160002060009054906101000a900473ffffffffffffffffffffffffffffffffffffffff1673ffffffffffffffffffffffffffffffffffffffff168373ffffffffffffffffffffffffffffffffffffffff16146126f1576040517f08c379a00000000000000000000000000000000000000000000000000000000081526004018080602001828103825260238152602001806134ee6023913960400191505060405180910390fd5b6127108273ffffffffffffffffffffffffffffffffffffffff16612627565b15612766576040517f08c379a00000000000000000000000000000000000000000000000000000000081526004018080602001828103825260228152602001806135116022913960400191505060405180910390fd5b61276f81612e6d565b6127b6600460008573ffffffffffffffffffffffffffffffffffffffff1673ffffffffffffffffffffffffffffffffffffffff168152602001908152602001600020612f2b565b6127fd600460008473ffffffffffffffffffffffffffffffffffffffff1673ffffffffffffffffffffffffffffffffffffffff1681526020019081526020016000206121a9565b816002600083815260200190815260200160002060006101000a81548173ffffffffffffffffffffffffffffffffffffffff021916908373ffffffffffffffffffffffffffffffffffffffff160217905550808273ffffffffffffffffffffffffffffffffffffffff168473ffffffffffffffffffffffffffffffffffffffff167fddf252ad1be2c89b69c2b068fc378daa952ba7f163c4a11628f55a4df523b3ef60405160405180910390a4505050565b60006129076001600660008673ffffffffffffffffffffffffffffffffffffffff1673ffffffffffffffffffffffffffffffffffffffff16815260200190815260200160002080549050612f4e90919063ffffffff16565b90506000600760008481526020019081526020016000205490508181146129f4576000600660008673ffffffffffffffffffffffffffffffffffffffff1673ffffffffffffffffffffffffffffffffffffffff168152602001908152602001600020838154811061297457fe5b9060005260206000200154905080600660008773ffffffffffffffffffffffffffffffffffffffff1673ffffffffffffffffffffffffffffffffffffffff16815260200190815260200160002083815481106129cc57fe5b9060005260206000200181905550816007600083815260200190815260200160002081905550505b600660008573ffffffffffffffffffffffffffffffffffffffff1673ffffffffffffffffffffffffffffffffffffffff168152602001908152602001600020805480612a3c57fe5b6001900381819060005260206000200160009055905550505050565b600660008373ffffffffffffffffffffffffffffffffffffffff1673ffffffffffffffffffffffffffffffffffffffff168152602001908152602001600020805490506007600083815260200190815260200160002081905550600660008373ffffffffffffffffffffffffffffffffffffffff1673ffffffffffffffffffffffffffffffffffffffff1681526020019081526020016000208190806001815401808255809150506001900390600052602060002001600090919091909150555050565b612b3b8273ffffffffffffffffffffffffffffffffffffffff16612627565b158015612b4e5750612b4c816125b5565b155b612ba3576040517f08c379a00000000000000000000000000000000000000000000000000000000081526004018080602001828103825260308152602001806134266030913960400191505060405180910390fd5b816002600083815260200190815260200160002060006101000a81548173ffffffffffffffffffffffffffffffffffffffff021916908373ffffffffffffffffffffffffffffffffffffffff160217905550612c3c600460008473ffffffffffffffffffffffffffffffffffffffff1673ffffffffffffffffffffffffffffffffffffffff1681526020019081526020016000206121a9565b808273ffffffffffffffffffffffffffffffffffffffff16600073ffffffffffffffffffffffffffffffffffffffff167fddf252ad1be2c89b69c2b068fc378daa952ba7f163c4a11628f55a4df523b3ef60405160405180910390a45050565b6008805490506009600083815260200190815260200160002081905550600881908060018154018082558091505060019003906000526020600020016000909190919091505550565b60606000821415612d2d576040518060400160405280600181526020017f30000000000000000000000000000000000000000000000000000000000000008152509050612e24565b600082905060005b60008214612d57578080600101915050600a8281612d4f57fe5b049150612d35565b60608167ffffffffffffffff81118015612d7057600080fd5b506040519080825280601f01601f191660200182016040528015612da35781602001600182028036833780820191505090505b50905060006001830390505b60008614612e1c57600a8681612dc157fe5b0660300160f81b82828060019003935081518110612ddb57fe5b60200101907effffffffffffffffffffffffffffffffffffffffffffffffffffffffffffff1916908160001a905350600a8681612e1457fe5b049550612daf565b819450505050505b919050565b6060612e658383604051806020016040528060008152506040518060200160405280600081525060405180602001604052806000815250612f98565b905092915050565b600073ffffffffffffffffffffffffffffffffffffffff166003600083815260200190815260200160002060009054906101000a900473ffffffffffffffffffffffffffffffffffffffff1673ffffffffffffffffffffffffffffffffffffffff1614612f285760006003600083815260200190815260200160002060006101000a81548173ffffffffffffffffffffffffffffffffffffffff021916908373ffffffffffffffffffffffffffffffffffffffff1602179055505b50565b612f4360018260000154612f4e90919063ffffffff16565b816000018190555050565b6000612f9083836040518060400160405280601e81526020017f536166654d6174683a207375627472616374696f6e206f766572666c6f77000081525061326a565b905092915050565b60608086905060608690506060869050606086905060608690506060815183518551875189510101010167ffffffffffffffff81118015612fd857600080fd5b506040519080825280601f01601f19166020018201604052801561300b5781602001600182028036833780820191505090505b5090506060819050600080600090505b88518110156130895788818151811061303057fe5b602001015160f81c60f81b83838060010194508151811061304d57fe5b60200101907effffffffffffffffffffffffffffffffffffffffffffffffffffffffffffff1916908160001a905350808060010191505061301b565b600090505b87518110156130fc578781815181106130a357fe5b602001015160f81c60f81b8383806001019450815181106130c057fe5b60200101907effffffffffffffffffffffffffffffffffffffffffffffffffffffffffffff1916908160001a905350808060010191505061308e565b600090505b865181101561316f5786818151811061311657fe5b602001015160f81c60f81b83838060010194508151811061313357fe5b60200101907effffffffffffffffffffffffffffffffffffffffffffffffffffffffffffff1916908160001a9053508080600101915050613101565b600090505b85518110156131e25785818151811061318957fe5b602001015160f81c60f81b8383806001019450815181106131a657fe5b60200101907effffffffffffffffffffffffffffffffffffffffffffffffffffffffffffff1916908160001a9053508080600101915050613174565b600090505b8451811015613255578481815181106131fc57fe5b602001015160f81c60f81b83838060010194508151811061321957fe5b60200101907effffffffffffffffffffffffffffffffffffffffffffffffffffffffffffff1916908160001a90535080806001019150506131e7565b82995050505050505050505095945050505050565b6000838311158290613317576040517f08c379a00000000000000000000000000000000000000000000000000000000081526004018080602001828103825283818151815260200191508051906020019080838360005b838110156132dc5780820151818401526020810190506132c1565b50505050905090810190601f1680156133095780820380516001836020036101000a031916815260200191505b509250505060405180910390fd5b5060008385039050809150509392505050565b604051806060016040528060008152602001600073ffffffffffffffffffffffffffffffffffffffff1681526020016000151581525090565b828054600181600116156101000203166002900490600052602060002090601f016020900481019282601f106133a457805160ff19168380011785556133d2565b828001600101855582156133d2579182015b828111156133d15782518255916020019190600101906133b6565b5b5090506133df91906133e3565b5090565b5b808211156133fc5760008160009055506001016133e4565b509056fe596f7520646f206e6f742068617665207065726d697373696f6e20746f20617070726f7665546f6b656e20616c7265616479206d696e746564206f72206f776e6572206164647265737320697320696e76616c69645061757365642073746174652063616e6e6f74206265207468652073616d652061732063757272656e74207374617465596f752063616e6e6f7420617070726f7665206f776e6572206f6620746f6b656e5468697320706172746963756c617220736f6c7574696f6e20686173206265656e20757365644f6e6c7920616e20454f412063616e206f776e207468697320636f6e74726163744f6e6c79206f776e6572206f6620746f6b656e2063616e207472616e7366657220697444657374696e6174696f6e206973206e6f7420612076616c696420616464726573734f6e6c79206f776e6572206f6620636f6e74726163742063616e20706572666f726d2074686973206f7065726174696f6ea2646970667358221220bdb557841a7feb34e25c96852727f97114e486aeaf687582cf9d060f50d128ce64736f6c634300060c003368747470733a2f2f73332d75732d776573742d322e616d617a6f6e6177732e636f6d2f756461636974792d626c6f636b636861696e2f63617073746f6e652f",
  "immutableReferences": {},
  "source": "// SPDX-License-Identifier: MIT\npragma solidity >=0.4.21 <=0.7.0;\n\nimport \"./ERC721Mintable.sol\";\n\n// TODO define a contract call to the zokrates generated solidity contract <Verifier> or <renamedVerifier>\ninterface Verifier {\n    function verifyTx(\n        uint256[2] memory a,\n        uint256[2][2] memory b,\n        uint256[2] memory c,\n        uint256[2] memory input\n    ) external view returns (bool r);\n}\n\n// TODO define another contract named SolnSquareVerifier that inherits from your ERC721Mintable class\ncontract SolnSquareVerifier is DRET {\n    Verifier verifierContract;\n\n    constructor(address verifierContractAddress) public {\n        verifierContract = Verifier(verifierContractAddress);\n    }\n\n    // TODO define a solutions struct that can hold an index & an address\n    struct Solution {\n        uint256 index;\n        address solver;\n        bool isCorrect;\n    }\n\n    Counters.Counter solutionIndex;\n    Counters.Counter tokenIndex;\n\n    // TODO define an array of the above struct\n    Solution[] solutions;\n\n    // TODO define a mapping to store unique solutions submitted\n    mapping(bytes32 => Solution) submittedSolutions;\n\n    // TODO Create an event to emit when a solution is added\n    event NewSolution(address solver, bool isCorrect);\n\n    // TODO Create a function to add the solutions to the array and emit the event\n    function _addSolution(\n        uint256[2] memory a,\n        uint256[2][2] memory b,\n        uint256[2] memory c,\n        uint256[2] memory input\n    ) internal returns (bool) {\n        bytes32 key = keccak256(abi.encodePacked(a, b, c, input));\n\n        require(\n            !submittedSolutions[key].isCorrect,\n            \"This particular solution has been used\"\n        );\n\n        Solution memory newSolution;\n\n        solutionIndex.increment();\n\n        newSolution.index = solutionIndex.current();\n        newSolution.solver = msg.sender;\n        newSolution.isCorrect = verifierContract.verifyTx(a, b, c, input);\n\n        submittedSolutions[key] = newSolution;\n        solutions.push(newSolution);\n\n        emit NewSolution(msg.sender, newSolution.isCorrect);\n\n        return newSolution.isCorrect;\n    }\n\n    // TODO Create a function to mint new NFT only after the solution has been verified\n    //  - make sure the solution is unique (has not been used before)\n    //  - make sure you handle metadata as well as tokenSuplly\n    function mintDRET(\n        uint256[2] memory a,\n        uint256[2][2] memory b,\n        uint256[2] memory c,\n        uint256[2] memory input\n    ) public {\n        // keeps track of all solutions whether correct or wrong\n        bool solutionIsCorrect = _addSolution(a, b, c, input);\n        require(solutionIsCorrect, \"Solution provided is not correct\");\n\n        tokenIndex.increment();\n        super.mint(msg.sender, tokenIndex.current());\n    }\n}\n",
  "sourcePath": "/Users/donriddo/Workspace/blockchain/dret/contracts/SolnSquareVerifier.sol",
  "compiler": {
    "name": "solc",
    "version": "0.6.12+commit.27d51765.Emscripten.clang"
  },
  "schemaVersion": "3.2.2",
  "updatedAt": "2020-09-23T00:54:01.760Z",
  "networkType": "ethereum",
  "devdoc": {
    "kind": "dev",
    "methods": {
      "__callback(bytes32,string)": {
        "details": "The following `__callback` functions are just placeholders ideally      meant to be defined in child contract when proofs are used.      The function bodies simply silence compiler warnings."
      },
      "isApprovedForAll(address,address)": {
        "details": "Tells whether an operator is approved by a given owner",
        "params": {
          "operator": "operator address which you want to query the approval of",
          "owner": "owner address which you want to query the approval of"
        },
        "returns": {
          "_0": "bool whether the given operator is approved by the given owner"
        }
      },
      "setApprovalForAll(address,bool)": {
        "details": "Sets or unsets the approval of a given operator An operator is allowed to transfer all tokens of the sender on their behalf",
        "params": {
          "approved": "representing the status of the approval to be set",
          "to": "operator address to set the approval"
        }
      },
      "supportsInterface(bytes4)": {
        "details": "implement supportsInterface(bytes4) using a lookup table"
      },
      "tokenByIndex(uint256)": {
        "details": "Gets the token ID at a given index of all the tokens in this contract Reverts if the index is greater or equal to the total number of tokens",
        "params": {
          "index": "uint256 representing the index to be accessed of the tokens list"
        },
        "returns": {
          "_0": "uint256 token ID at the given index of the tokens list"
        }
      },
      "tokenOfOwnerByIndex(address,uint256)": {
        "details": "Gets the token ID at a given index of the tokens list of the requested owner",
        "params": {
          "index": "uint256 representing the index to be accessed of the requested tokens list",
          "owner": "address owning the tokens list to be accessed"
        },
        "returns": {
          "_0": "uint256 token ID at the given index of the tokens list owned by the requested address"
        }
      },
      "totalSupply()": {
        "details": "Gets the total amount of tokens stored by the contract",
        "returns": {
          "_0": "uint256 representing the total amount of tokens"
        }
      }
    },
    "version": 1
  },
  "userdoc": {
    "kind": "user",
    "methods": {},
    "version": 1
  }
}